:020000040800F2
:10000000400C002071020008CB4B0008214600087C
:10001000C94B000891280008715200080000000038
:10002000000000000000000000000000C54D0008B6
:100030009328000800000000CD4B0008C74D0008C1
:100040008B0200088B0200088B0200088B0200085C
:100050008B0200088B0200088B0200088B0200084C
:100060008B0200088B0200088B0200088B0200083C
:100070008B0200088B0200088B0200088B0200082C
:100080008B0200088B0200088B02000800000000B1
:100090000000000000000000000000008B020008CB
:1000A0008B0200088B0200088B0200088B020008FC
:1000B0008B020008714E00088B0200088B020008BA
:1000C0008B0200088B0200088B0200088B020008DC
:1000D0008B0200088B020008595200080000000043
:1000E0008B0200088B0200088B0200080000000051
:1000F0000000000000000000000000008B0200086B
:10010000000000008B0200088B0200088B02000830
:1001100000000000000000000000000000000000DF
:100120008B0200088B0200088B0200088B0200087B
:100130008B0200080000000000000000000000002A
:100140000000000000000000000000008B0200081A
:100150008B0200088B0200088B0200086552000821
:100160008B0200088B020008000000000000000065
:10017000000000000000000000000000000000007F
:10018000000000008B0200080000000000000000DA
:100190008B0200088B02000800F002F800F058F80B
:1001A0000AA090E8000C82448344AAF10107DA45D2
:1001B00001D100F04DF8AFF2090EBAE80F0013F0CC
:1001C000010F18BFFB1A43F001031847605F0000DE
:1001D000805F0000103A24BF78C878C1FAD852076F
:1001E00024BF30C830C144BF04680C6070470000B1
:1001F0000023002400250026103A28BF78C1FBD830
:10020000520728BF30C148BF0B607047662905F010
:100210004786642900F02881782900F061817329DC
:1002200000F0AD86002070471FB505F02CFE01F0F0
:100230006BF904000020002105F0ACFB401C60605D
:100240000020002105F090FBE0601FBD10B510BD3F
:1002500001F020FC1146FFF7E7FF05F079FA01F005
:100260007DFE03B4FFF7F2FF03BC01F0D5FE0000F2
:100270000948804709480047FEE7FEE7FEE7FEE73A
:10028000FEE7FEE7FEE7FEE7FEE7FEE70448054976
:10029000054A064B70470000614E000899010008AE
:1002A00040060020400C00204008002040080020AC
:1002B00053EA020C00F069802DE9F04B4FF0000684
:1002C000002B1FBFB3FA83F503FA05F424FA05F6F1
:1002D0005E4012BF1643B2FA82F502FA05F4C5F188
:1002E00020051EBF22FA05FC44EA0C04203556EA1C
:1002F000044C4FEA144418BF641C4FF000084FF040
:100300000009904271EB030C39D3002919BFB1FAEF
:1003100081F701FA07F6B0FA80F700FA07F6C7F19D
:1003200020071EBF20FA07FC46EA0C062037B6FB62
:10033000F4FCA7EB0507103F07F01F0BCBF12006DD
:100340000CFA0BFB2CFA06F644BFB3460026202F0E
:10035000A4BF5E464FF0000B5BEA060C08BF4FF0EF
:10036000010B19EB0B09ABFB027C48EB0608C01B29
:1003700006FB02CC0BFB03CC71EB0C01C1E70B4677
:10038000024641464846BDE8F08B13B54FF00000E9
:100390004FF00001AFF30080BDE81C407047000043
:1003A0000FB41CB5074B06AA7B446946009005981C
:1003B00000F0BBFD0020694600F0CAFD1CBC5DF8E2
:1003C00014FB0000A50B000070B5044685690068A9
:1003D000C10601D5302600E02026C00707D070BD39
:1003E000D4E9012130469047206A401C20626D1EEE
:1003F000F6D570BD70B5044685690078C00707D191
:1004000070BDD4E9012120209047206A401C206261
:100410006D1EF6D570BD70B50C460546012A05D097
:100420002878800600D5EA69002302E0012305E070
:100430005B1C934202D2E05C0028F9D1A869E6185F
:10044000C01AA861286A184428622846FFF7BCFF32
:1004500004E0D5E9012114F8010B9047B442F8D328
:100460002846FFF7C7FF70BD2DE9F041064600247E
:1004700010687529314616A510D0AFF3008000280A
:1004800002DA404213A507E031688A0701D512A5B8
:1004900002E0490704D511A5012401E0AFF3008073
:1004A00000210A2206F1240709E0B0FBF2FCB0FBB0
:1004B000F2F302FB1C00303078541846491C002827
:1004C000F3D123462A463046BDE8F04100F0BFBADA
:1004D000000000002D0000002B00000020000000A4
:1004E00070B504460D4621461068AFF300802188A0
:1004F000090502D50F4A7A4402E00E4A7A440E32C8
:10050000002104F1240305E000F00F060009965DC8
:100510005E54491C0028F7D120780023000704D539
:10052000702D02D009B1022311322046BDE870407F
:1005300000F08DBABE5A00002DE9F05F89460446EE
:100540004FF0000ADFF824B1FB44C0F820A0204699
:10055000E168884700287DD0252806D0D4E901210C
:100560009047206A401C2062F1E700255F46204644
:10057000E16888472028064607DB312E05D2B819E6
:1005800010F8200C08B10543F1E7A80701D525F0C4
:100590000405C4F81CA00027C4F818A02A2E09D00E
:1005A000304604F0A8FF38B304EB8708303EC8F8A3
:1005B000186019E059F8041B204604EB870291618A
:1005C000E1688847012F064618D1E069002820DA43
:1005D00025F020051DE0D8F8180000EB800006EBA0
:1005E00040003038C8F818002046E16888470646C1
:1005F00004F081FF0028EED1012F0AD02E2E08D161
:100600002046E16888477F1C0646022F45F02005FA
:10061000C4DBA069002803DA404245F00105A0616F
:10062000E80701D025F01005A6B1A6F14100192870
:1006300002D8203645F400654A46314620462560FA
:100640004D46FFF7E3FD60B1012807D0ED1D25F011
:10065000070000E007E000F1080978E705F1040968
:1006600075E730467AE7206ABDE8F09F945A0000AB
:100670000FB400B58DB010A9099000910B904FF008
:10068000FF300A9000200C900648784406900648F7
:1006900078446A4607900F9909A800F005FF0DB04D
:1006A0005DF814FB3B0E0000530E00002DE9FF5FC8
:1006B0001D464FF0FF3B91464FF000085F46D5E9DD
:1006C0000146A96901987F1C8847296A82468847A4
:1006D0000028F6D1BAF1FF3F0CD0002E24F4C064FC
:1006E00019DD600614D5BAF12B0F09D0BAF12D0F20
:1006F0000ED103E0584604B0BDE8F09F44F4806496
:10070000A96901987F1C8847761E8246002E02DD6B
:10071000BAF1300F03D0B9F1000F26D032E0A96949
:10072000761E01987F1C44F400748847002E824690
:1007300005DDBAF1780F06D0BAF1580F03D0B9F140
:10074000000F10D01EE0B9F1000F02D0B9F1100F68
:1007500018D1A969761E01987F1C24F4007488477B
:100760008246102002E0082000E00A20814609E0CD
:10077000A96908FB0908761E01987F1C44F40074DF
:1007800088478246002E05DD4946504600F0FBFBB7
:100790000028EDDAE96901988847A00502D46FF0D6
:1007A0000100A8E7E00725D1600613D5600502D552
:1007B000C8F1000000E0404629680A1D2A60096867
:1007C000220501D5087015E0220701D5088011E047
:1007D00008600FE02868011D29600068210502D526
:1007E00080F8008006E0210702D5A0F8008001E033
:1007F000C0F8008038467EE72DE9FF5F4FF0000823
:100800009946144646469169D2E901A7DDF838B009
:1008100001988847054659EA0B0005D009E0A1690F
:100820000198761C88470546216A28468847002893
:10083000F5D1681C03D05FEACA7005D015E04FF00F
:10084000FF3004B0BDE8F09F2068011D2160D0F8A2
:1008500000800AE05FEACA7001D108F8015BA16973
:10086000761C01987F1E88470546002F1ADD681CFC
:1008700018D0B9F1000F0DD0E81705EBD060421188
:1008800020F01F0059F822102A1A0120904001423E
:10089000E0D107E0BBF1000FDCD12846216A884790
:1008A0000028D7D0E16901988847BBF1000F07D134
:1008B000002E05DD5FEACA7002D1002188F8001021
:1008C000A068B84203DDBBF1000F03D017B16FF091
:1008D0000100B6E73046B4E740EA0103024630B50E
:1008E0009B0710D14FF0013400E008C208C91D1B5E
:1008F0009D4315EAC41FF8D013F0FF0102F8011B55
:100900000DD01B0AF8E711F8013B002B02F8013B60
:1009100005D011F8013B002B02F8013BF3D130BDAB
:1009200040EA010370B59B072ED14FF00136042A2F
:100930002AD308C810C99D1B9D43121F15EAC6156E
:1009400017D0D8B2E1B2401A50EA056110D198B27E
:10095000A1B2401A50EA05410AD123F07F4024F0A9
:100960007F41401A50EA052102D1180EA0EB146015
:1009700070BDA342DBD018BA21BA884201D9012048
:1009800070BD4FF0FF3070BD0AB9002070BD10F887
:10099000013B11F8014B63B1A3420AD1521E08D0AA
:1009A00010F8013B11F8014B1BB1A34201D1521EBB
:1009B000EDD1181B70BD4FF000020429C0F0128069
:1009C00010F0030C00F01B80CCF1040CBCF1020F02
:1009D00018BF00F8012BA8BF20F8022BA1EB0C01D7
:1009E00000F00DB85FEAC17C24BF00F8012B00F8CD
:1009F000012B48BF00F8012B70474FF0000200B5F3
:100A0000134694469646203922BFA0E80C50A0E831
:100A10000C50B1F12001BFF4F7AF090728BFA0E8DF
:100A20000C5048BF0CC05DF804EB890028BF40F8AB
:100A3000042B08BF704748BF20F8022B11F0804FED
:100A400018BF00F8012B70477047704770472DE9B9
:100A5000F0470D4699469246044600F12408016885
:100A6000880604D5E06921F01001216000E0012032
:100A7000A84201DD471B00E00027A1697A1902EBBB
:100A80000900081AA0612078C00602D42046FFF7AA
:100A90009BFC002608E0D4E901211AF806009047E3
:100AA000206A401C761C20624E45F4DB2078C0068C
:100AB0000AD52046FFF788FC06E0D4E90121302062
:100AC0009047206A401C2062381EA7F10107F4DC21
:100AD00007E0D4E9012118F805009047206A401C7E
:100AE0002062281EA5F10105F3DC2046FFF782FCF9
:100AF0002078000602D50220BDE8F0870120FBE740
:100B000070472DE9FF4F0C461E464FF0FF378BB064
:100B1000D2E90001DDF860800A908A46C1F30A55E7
:100B200005B93D46002108464FF00000BAF1000F1C
:100B300000F4400005DA00EB80004FF4400101EAC8
:100B400050004FEA9059B9F1010F00DDB9460A98FB
:100B500050EA4A000ED044F61050A5F2FF35454346
:100B60002F14B8F1000F1ED07542291E1EDDC9F1E9
:100B700000021CE0B8F1010F4FF0000001D030215D
:100B800003E0F24305E02154401CB042FBDB304659
:100B90000022002121540B99C1F80880C1E90020EE
:100BA0000FB0BDE8F08FBD1B6D1CDEE74A4600DAD2
:100BB000694206A800F0F8FE06AB93E8070003AB15
:100BC00083E8070050460A9901F02DFA8DE80700E6
:100BD000A0F500501F3800900398002D0ADD42F266
:100BE0001F014A460844002303A90390684601F008
:100BF000D9FC09E0A0F500504A461F38002303A99C
:100C00000390684601F0F8FC8DE807000004000C32
:100C100003D04FF0FF30410800E01046B8F1000F5C
:100C200003D00022009215461EE0751E05D400F088
:100C300073FC303262556D1EF9D5B346012208436C
:100C400002D000227F1C04E02078302801D100224D
:100C50007F1E002A099784D01DE0112D07DA00F0CD
:100C60005BFC303262556D1C50EA0102F5D108433D
:100C700002D00098C8B10EE00021681E05E0235C98
:100C8000625C63542254401E491C8142F7DBAB4630
:100C9000A81B401E0990002004F80B000B98099A2D
:100CA000C0F80880C0E9002B7AE711264FF0000851
:100CB00057E72DE9F04F88460446D21D22F0070180
:100CC00091B0D1E90001CDE90A0104F0D2FA02465F
:100CD0000B98C00F01D02D2007E02068810701D5B7
:100CE0002B2002E0202101EAC000032A099001D054
:100CF000072A05DB03464146204600F05BFC0BE17A
:100D00002078800601D5E06900E00620B8F1650F83
:100D1000814606D0B8F1660F18D0B8F1670F70D1D0
:100D200031E00020B9F1110F009001DB112301E047
:100D300009F101030AAA01A90CA8FFF7E2FEDDE907
:100D40000C70002609F10105834647E001204B465F
:100D500000904FF000470AAA01A90CA8FFF7D1FEA6
:100D6000DDE90DB00C995D46002610B909F10100CE
:100D70000D18B9EB050003D4C0F1FF3609F10105E8
:100D8000A5EB09002BE0B9F1010F01DA4FF00109E1
:100D90000020B9F1110F0090484601DD112300E059
:100DA00003460AAA01A90CA8FFF7ABFEDDE90C7007
:100DB0004D4600268346207800070AD4AB4500DA6A
:100DC0005D4601A8012D04DD411911F8011C3029EF
:100DD00007D04F4502DA17F1040F04DA01208246EA
:100DE0000FE06D1EEEE7002F02DCED1B3E4403E03A
:100DF000781CA84200DD7D1CB81B00F1010A4FF0F1
:100E000000472078000703D4AA4501DB4FF0FF3AE2
:100E10000021B7F1004F0DF143088DF8431024D0A5
:100E200002202B23002F01DA7F422D230A21021EEC
:100E3000A0F1010000DC5FB197FBF1FC97FBF1F240
:100E400001FB1C7C17460CF1300C08F801CDEEE7D5
:100E5000A8F1010003702188090501D5452100E0B2
:100E60006521A0F1010800F8011C09980FA9A1EB68
:100E70000807FF1D00B10120411901EBEA70A169CB
:100E80003844081A401EA0612078C00602D42046CB
:100E9000FFF79AFA099828B1D4E901219047206A0E
:100EA000401C20622078C00622D52046FFF78CFA2D
:100EB0001EE0002E04DBB34502DD01A8805D00E0EA
:100EC0003020D4E901219047206A401C2062761C22
:100ED000AAF101005FEA000A0AD100F015FBC06820
:100EE0000168405CD4E901219047206A401C2062DF
:100EF000281EA5F10105DCDC07E0D4E9012118F882
:100F0000010B9047206A401C2062381EA7F10107A0
:100F1000F3DC2046FFF76EFA032011B041E6000033
:100F200001694A1C02610878704700B58FB0CDE9AD
:100F300001310021059105497944CDE9031011469D
:100F40006846FFF7F9FA0FB000BD0000E5FFFFFFAC
:100F50000A6802F8010B0A60704710B5436913B1C3
:100F6000AFF3008001E0FFF756FA012010BD1278C0
:100F700000F124010A7000224A700122EDE7116895
:100F80004FF0FF32E9E73A2800D2303820F0200253
:100F9000412A01D3A2F13700884201D34FF0FF303C
:100FA000704700002DE9FF4F06468BB00878FF28F8
:100FB00006D0491C2D2805D000244FF0000908E078
:100FC00000200CE00124F8E709EB8903491C00EB41
:100FD00043090878FF28F7D114B1C9F10000814610
:100FE000107800252C46AA4629462D2801D02B280A
:100FF00004D1521C2D2813D0002082468B46107835
:10100000FF280FD04FF0000C0A21521CA5FB0178DD
:1010100004FB018105FB0C11C5194BEB0104EEE744
:101020000120EAE7002108464FF00000BAF1000F66
:1010300002D000EB80004008C0F38157012F01DD92
:101040004FF0FF370E9955EA040009EB01080BD069
:101050004FF0020918F5FA7F16DA4FEACA70002F2E
:10106000706008DD012007E04FEACA70C6E900B0F1
:101070000FB0BDE8F08F0020306000F049FAC0F8F2
:1010800000901821084616E0B8F5FA7F18DD002F09
:1010900002DAF748784401E0F6487844D0E90010D5
:1010A000C6E9001040EACA70706000F031FAC0F87A
:1010B0000090142108460FB0BDE8F04F04F0EDBEDB
:1010C000002108464FF00000B8F10001099002DA53
:1010D000C7F1000200E03A4601DAC8F1000106A8B3
:1010E00000F062FC06AB93E8070003AB83E807005F
:1010F00044F23E005BEA04010090584604D144F2F9
:101100001E012C465D460091210C0904014306D1C5
:101110000099240444EA15442D041039009104F088
:101120007F41014306D10099240244EA15642D024F
:101130000839009104F07041014306D1009924015F
:1011400044EA15742D01091F009104F04041014348
:1011500006D10099A40044EA9574AD00891E00915F
:1011600004F00041084304D100986D196441401E09
:1011700000904FF001033A466846B8F1000FCDE900
:10118000014503A902DD01F04CFA01E001F01FFA6C
:10119000BAF1000F04460D4601D084F0004400214E
:1011A00008464FF00000099940F2FF77484010F0E0
:1011B0000C0F07D124F00040284303D0C4F30A5099
:1011C000B84212D100F0A4F9C0F80090C4F30A505C
:1011D000B8420AD1A8487844D0E90010C6E9001006
:1011E00004F000410843706042E7C6E900543FE75D
:1011F0002DE9FF4F1F464FF0000A4FF0FF384546DC
:1012000091B0D7E90146CDF83CA000F07DF9C06867
:101210000168405C1090B96912986D1C8847396A62
:10122000814688470028F6D1B9F1FF3F0AD0002E49
:1012300024F4D06411DDB9F12B0F08D0B9F12D0FD2
:101240000BD102E0404615B013E744F48064B9695D
:1012500012986D1C8847761E8146600504A901D549
:101260002D2000E02B20002E01F1010B0DF13008A4
:101270008DF810003FDDB9F1690F08D0B9F1490FC1
:1012800005D0B9F16E0F02D0B9F14E0F1CD13B461B
:1012900001A8009580E85002DDE912126FF002000B
:1012A00004F064FEC11CCED10EE0B96912986D1C29
:1012B000884781461398761E44F4007405600F98A1
:1012C000401C002E0F9016DDB9F1300FEDD0B9F1B2
:1012D000780F02D0B9F1580F0DD10F9801280AD11B
:1012E0003B46CDE90054DDE91212001F029604F0DE
:1012F0003BFEC11CA7D1109989453ED144F0800422
:1013000006E01399681CAAF1010A44F4007408600D
:10131000B9696D1C1298761E884730288146F0D036
:101320002BE01099894505D1200603D4761E44F0A0
:10133000800418E0484604F0DEF808B3761E0DF18C
:1013400023018B4544F4007408D2A9F130000BF856
:10135000010B200607D5AAF1010003E0200602D404
:101360000AF101008246A00502D51399681C0860A5
:10137000B96912986D1C88478146002ED1DC53E074
:10138000002E51DDB9F1650F02D0B9F1450F4BD1F7
:10139000A00549D5B9696D1C1298761E24F44074D5
:1013A0008847002E81460CDD2B2804D0B9F12D0F83
:1013B00007D144F48074B96912986D1C8847761E71
:1013C0008146E00501D52D2100E02B2108F8011B05
:1013D000CDF8008021E0761E0DF13901884544F4F6
:1013E00000740CD2A9F1300010F0FF0088F8000062
:1013F00002D10099884509D908F1010806E0E00505
:1014000001D51E4801E042F20F708246B969129878
:101410006D1C8847814613980560002E04DD484600
:1014200004F069F80028D6D1F96912988847FF209E
:1014300053468BF8000088F8000000200A900B90BB
:1014400004AA0CA90AA8FFF7ADFDA00502D46FF00D
:101450000100F8E614F0240F12D0E0071CD1386820
:10146000DDE90A12031D3B600068C0E9001213E0C9
:10147000BC500000AE500000724F0000F1D8FFFFDA
:101480000AA9684604F024F8E00705D13868009AF4
:10149000011D3960006802602846D4E602681144E4
:1014A0001378016018467047D1600549794451614D
:1014B00004497944116200211161114600F0BAB863
:1014C000EDFFFFFFED000000426842B1016811F836
:1014D000013B23B1521EC0E900121846704701219A
:1014E000C160881E704742685AB1C368016843B939
:1014F00083688B4205D0491E521CC0E900120020AF
:1015000070474FF0FF3070470048704700060020DA
:1015100000487047E005002030B5B0F10A024FEAFC
:10152000900E71F100034EEA817EB0EB0E0061EB8C
:1015300091014FEA101E4EEA017E10EB0E0041EBC6
:1015400011114FEA102E4EEA016E10EB0E0041EB26
:1015500011214FEA104E4EEA014E10EB0E0041EB06
:101560001141401841F100014FEAD00040EA4170BA
:101570004FEAD10110EB80054FEA810444EA9074F0
:1015800044EB01046D1944EB0404521BA3414FF0DA
:10159000000348BF0A3200D530BD401C41F10001B4
:1015A00030BD10B5044600F09BFA0068005D00F005
:1015B000010010BD2DE9F0411F46044603260168D5
:1015C000072A01F4006004DB08B116A505E016A5A2
:1015D00003E008B115A500E015A521F0100020607A
:1015E000A069C01EA0610FB1401EA0612046FEF799
:1015F000EBFE4FB1D4E9012138469047206A401CE8
:101600002062C01C206206E0206AFAE7D4E90121CA
:1016100015F8010B9047761EF8D22046FEF7EAFE39
:10162000BDE8F0814E414E006E616E00494E4600AD
:10163000696E66002DE9F34F4FF0000A0C465646DE
:101640008DB001200C9001F10C000B9062690B9899
:1016500001219047051E2DD0252D2CD0216A8847C9
:10166000C0B162690B9801219047216A8847002820
:10167000F7D16269411E0B98904700E0761CA16982
:101680000D988847216A88470028F7D1E1690D98AD
:101690008847DBE7A1690D988847A842074601D132
:1016A000761CD3E7E1690D9888477F1C02D1BAF117
:1016B000000F6FD06CE162690B9800273D463946F8
:1016C00090472A2804D162690B980121904701258F
:1016D000DFF8D08262690B9801219047A0F13001B8
:1016E0000A290AD24745E5DC07EB870100EB4107F1
:1016F000303FDFD445F01005ECE7E90601D46FF088
:1017000000476C280AD04C2814D0682815D06A28C5
:101710000DD074281CD07A281AD01DE062690B986D
:10172000012190476C2802D045F0040514E045F0F3
:1017300002050DE045F020050AE062690B980121E1
:101740009047682802D045F0080505E045F400659B
:1017500062690B9801219047C4E9015765283DD083
:1017600019DC58287AD00CDC452837D004DC252831
:1017700026D041289ED131E046282FD0472899D144
:101780002CE05B2877D0612828D063287CD064289F
:1017900023D15AE0F7E06F2848D008DC66281DD036
:1017A00067281BD0692821D06E2816D127E0702821
:1017B00045D0732868D0752847D078280DD14DE0E2
:1017C000A1690D988847252805463FF469AFE1696E
:1017D0000D9888476D1C3FF46AAFD9E00D992346F8
:1017E0006A466FF0010004F0BDFBC6E045F0400022
:1017F00023464FF000026060A80736D43EE0E807B9
:101800007FF447AF2068011D21600068290501D5DC
:1018100006701BE7290701D5068017E7A90703D53E
:10182000F117C0E9006111E706600FE745F04000DD
:1018300023464FF008026060A80716D41EE040F669
:101840000E0125EA0100606016E045F040002346E5
:101850004FF00A026060A80707D40FE045F040008F
:101860006060A80708D5234610220D996FF001008B
:10187000AFF3008081E007E0102223460D996FF05E
:101880000100FEF713FF78E04FF0000963284F4690
:10189000C8464B46CB4602D05B2807D039E02079BA
:1018A000C00601D40120A060012732E06269D4F8AB
:1018B0000CB00B98012190475E2807D14FF0010929
:1018C00049466269D4F80CB00B989047216939B940
:1018D00000210A4603AB43F82120491C0829FADB02
:1018E000D8B3216949B308F1010862690B98012155
:1018F00090475D28F4D1B9F1000F09D0002003A969
:1019000051F82020D24341F82020401C0828F7DB62
:1019100003AB2069002820794FEA40701ED05B4657
:101920002246CDF80080CDE901970D9900286FF08F
:10193000010020DAAFF300801FE0C11703AA00EB1B
:10194000D1614B1121F01F0102EB8302411A136890
:101950000120884003431360C7E719E00D99224630
:1019600000286FF00100009702DAAFF3008004E076
:10197000FEF742FF01E0AFF3008000280ADA401CC6
:1019800006D10C9820B14FF0FF300FB0BDE8F08FBA
:101990005046FAE7E90701D10AF1010A064400209E
:1019A0000C9053E6CCCCCC0C2DE9F0478146164682
:1019B0008AB0354878440DC88DE80D003248784427
:1019C000801C03AC0DC884E80D0041F69B30084430
:1019D000372190FBF1F290FBF1F5A5F1800501FBB9
:1019E00012041B3C02D56442012000E00020DFF815
:1019F00098A080460027FA44AAF1BE0A0EE0E0074C
:101A00000AD03246684607EB470101230AEB810101
:101A100000F0F2FD8DE8070064107F1C002CEED171
:101A2000194F7F44AE3F19E0E80715D007EB0410CB
:101A30000DF1180A90E80E008AE80E00C068F04226
:101A400001D1981908903246012306A903A800F095
:101A5000D3FD03AB83E807006D10641C002DE3D1B8
:101A60004FF0010332466946B8F1000F03A802D0D7
:101A700000F098FD01E000F0BFFDC9E90001C9F8E0
:101A800008200AB0BDE8F087B8460000004870475B
:101A9000E00500207546FFF7F9FFAE4605006946F0
:101AA000534620F00700854618B020B5FEF7EEFB40
:101AB000BDE820404FF000064FF000074FF000084F
:101AC0004FF0000B21F00701AC46ACE8C009ACE8D0
:101AD000C009ACE8C009ACE8C0098D4670470000F9
:101AE00010B5FFF711FD001D10BD00BFA93E00009D
:101AF00010B5FFF70DFD006810BD10B50446FFF7E7
:101B000007FD046010BD00002DE9FF4F1F464FF098
:101B10003C0987B04FF00042DDE9141001F10108E3
:101B2000DDF858A002EA405003900020059083465B
:101B3000054604460490B969461E08988847AAF1EC
:101B4000010A0290BAF1000F3BDD02982E2815D051
:101B50001021FFF718FA00282EDB4FF0010B059932
:101B6000014317D0B9F1000F0BDB4A46C11700F053
:101B70003FFA05430C43A9F1040905E00120049054
:101B80000BE008B145F0010501200590049820B94B
:101B9000361D02E0049800B1361FB969089808F1B3
:101BA00001088847BBF1000FAAF1010A0290C9D0D1
:101BB0000999C1F80080C5E70298702808D050281C
:101BC00006D0F96908988847BBF1000F14D04FE0A0
:101BD000002002900120BBF1000F049009D0B969E8
:101BE000089808F101088847AAF10109B9F1000F26
:101BF00007DCF969089888476FF001000BB0BDE871
:101C0000F08F2B2804D02D280CD14FF0FF300490FA
:101C1000B969089808F101088847A9F10109B9F1E3
:101C2000000FE6DD411CE4D00A21FFF7ACF90028E3
:101C3000DFDB029908F1010801EB810100EB4100B3
:101C40000290B969089888470A21FFF79CF9099A18
:101C5000A9F10109B9F1000FC2F8008001DD0028E7
:101C6000E7DAF969089888470499029800FB016649
:101C700055EA040004D004F04041090002D006E017
:101C8000039898E0A40044EA9574AD00B61E04F0F1
:101C90000041080002D16D196441761E159810F0BC
:101CA000240F03D04FF00B095C4803E04FF02809E4
:101CB0006FF07D008246564507DAAAEB060189449B
:101CC000B9F1410F01DD4FF0410901200021A9F1D7
:101CD000010200F08DF9024628400B4621400843DE
:101CE00001D0012100E00021501E029143F1FF319B
:101CF00028402140084301D0012000E00020029943
:101D0000834651EA0B014FD0002108464FF00000F6
:101D1000039900F4400039B100EB80004FF440011A
:101D200000EBD07001EA60008015012802DD4FF061
:101D3000FF3000E013D0401C36D0029860B3BBF1F6
:101D4000000F0CD14A460120002100F051F9284033
:101D50002140084301D0012000E00020E0B1012033
:101D60004A46002100F044F9034640190A46614101
:101D70002D1A8C4111D3B9F1400F09DD159810F0DF
:101D8000240F02D0AAF1340603E0AAF1170600E0FE
:101D9000761C00254FF0004406E05B1E42F1FF3246
:101DA00020EA030521EA0204CAF10100B04206DA82
:101DB0001B49039808430190002000900EE0039A0D
:101DC000C4F3D321E80A0A43164940EA44500A43BF
:101DD0003146CDE90002684603F083FB159810F008
:101DE000240F0BD01598C00715D13868DDE9001213
:101DF000031D3B600068C0E900120CE002A86946C0
:101E000003F066FB1598C00705D13868029A011DDA
:101E10003960006802604046F0E6000002FCFFFF07
:101E20000000F07F0000F03F2DE9FF4F92461D4675
:101E300085B04FF00041DDE9124BDDE914727F1EE1
:101E400001EA4B50414940F0FF4940EA01080021B6
:101E500022F020004928049102D04E2828D04CE0DE
:101E60003BA0012607C88DE80700A9690698641CF5
:101E700088477F1E014606D41DF8060018B121F0E0
:101E8000200181420BD0E96906988847032E34D09F
:101E9000082E32D06FF0010009B0BDE8F08F761C3B
:101EA000032E01D0082EE0D1601CCAF80000DCE748
:101EB000A9690698641C88477F1E2AD420F0200058
:101EC000412826D1A9690698641C88477F1E20D422
:101ED00020F020004E281CD1A9690698641C884770
:101EE0007F1E48F4002849F48009CAF8004001D454
:101EF000282806D0E969069888475FEACB7012D097
:101F000022E0A9690698641C88477F1E01D4002836
:101F100003DAE96906988847BCE72928F1D1641CEF
:101F2000CAF80040E9E71BF0240F07D0286804999D
:101F3000031D2B600068C0E9001805E02868021D39
:101F40002A600068C0F800902046A5E70000F07FF6
:101F5000494E46494E4954590000000010B5044608
:101F6000AFF300802046BDE81040FEF77AB90000CC
:101F70004FF0013C50F8042B51F8043B9A4221D118
:101F8000A2EB0C03934313EACC1317D150F8042BA4
:101F900051F8043B9A4215D1A2EB0C03934313EA88
:101FA000CC130BD150F8042B51F8043B9A4209D1C1
:101FB000A2EB0C03934313EACC13DBD04FF00000E9
:101FC000704700BFD01A01BAB1FA81F101F01801CF
:101FD00022FA01F0CB40C1F12001DBB2C0B2C01A3D
:101FE0002CFA01F3D11A914311EAC311E6D17047DB
:101FF000B2F120030AD5C2F1200301FA02F120FA5E
:1020000003F300FA02F041EA0301704700FA03F11A
:102010004FF000007047000001491820ABBEFEE7FA
:102020002600020070475FEA400C08BF91F0000FE5
:102030004FEA8C234FEAC12243EA51514FEA1C5028
:1020400018BF00F5F0404FEA300018BF41F00041E2
:102050005FEA6C5C00F02980BCF1FF3F08BF40F0F4
:1020600080407047130C06BF12044FF0100C4FF065
:10207000000C130E04BF12020CF1080C130F04BF66
:1020800012010CF1040C930F04BF92000CF1020C2E
:10209000D30F04BF52000CF1010C11464FF00002A7
:1020A000A0F11F00A0EB0C00704711F0004F08BF1B
:1020B000704731F000413FF4D5AF0B0C06BF090467
:1020C0004FF0100C4FF0000C0B0E04BF09020CF186
:1020D000080C0B0F04BF09010CF1040C8B0F04BF9B
:1020E00089000CF1020CCB0F04BF49000CF1010C6C
:1020F000CCF12003A0EB0C0022FA03F302FA0CF25D
:1021000041EA030100F10100704720F07F4C80EAB2
:10211000030023F07F47ACEB070303F57C5300F08B
:10212000004003F1FF032DE980494FEA154B09B444
:102130004FEA144325EA0B4E24EA03480FF2042623
:1021400006EB132749083E785FEA320203FB066775
:10215000C7F5000707FB06F64FEA54374FEAD646A5
:1021600006F1020607FB066CCCF1005C4FEA1C4747
:102170002CEA074C07FB06F40CFB06F504EB1546AE
:102180004FEA961634BF00204FF000404FEAD13797
:1021900006FB07FC4FEA1C4C0CFB0BF7D21B03FBA6
:1021A0000CF761EB07010CFB0EF7B0EB074072EB8D
:1021B00017420CFB08F734BFA2EB0742B2EB074211
:1021C00061EB17414FEA0C444FEA910706FB07FC0D
:1021D0004FEA1C4C0CFB0BF7B0EBC74072EB5732CD
:1021E00003FB0CF734BFA2EBC742B2EBC74261EB73
:1021F00057310CFB0EF7B0EBC70072EB57720CFBBC
:1022000008F734BFA2EBC702B2EBC70261EB57710C
:10221000039F4FEA816141EA921104EBCC044FEA3B
:10222000D1374FEA826206FB07FC42EA90124FEA7E
:1022300080604FEA1C4C0CFB0BF7D21B03FB0CF726
:1022400061EB07010CFB0EF7B0EB074072EB174296
:102250000CFB08F734BFA2EB0742B2EB074261EB7D
:1022600017414FEA8C554FEA910704EB9C2406FB7B
:1022700007FC4FEA1C4C0CFB0BF7B0EBC74072EBB2
:10228000573203FB0CF734BFA2EBC742B2EBC74295
:1022900061EB57310CFB0EF7B0EBC70072EB5772D6
:1022A0000CFB08F734BFA2EBC702B2EBC70261EB2D
:1022B000577115EB4C254FEA816141EA92114FEAC3
:1022C00082624FEAD13742EA901206FB07FC44F1E2
:1022D00000044FEA80604FEA1C4C0CFB0BF7D21B4A
:1022E00003FB0CF761EB07010CFB0EF7B0EB0740AB
:1022F00072EB17420CFB08F734BFA2EB0742B2EBBC
:10230000074261EB174115EB1C154FEA813141EA99
:1023100092414FEA823242EA90424FEA80304FEADD
:102320000C7644F1000448EA03434EEA0B484FF0B0
:10233000000EB2EB080C71EB030724BF624639466E
:102340004EEB0E0E4FF0000B0018524149414BEB83
:102350000B0BB2EB080C71EB03077BF1000B24BFF6
:10236000624639464EEB0E0E4FF0000B00185241FC
:1023700049414BEB0B0BB2EB080C71EB03077BF104
:10238000000B24BF624639464EEB0E0E51EA02079F
:1023900018BF46F0010616EB0E7655F1000254F117
:1023A000000103D5BDE88901BDE80088BDE88901C9
:1023B000BDE80048B619524141EB0101A3F1010308
:1023C000704780807F7E7D7C7B7A797877767675A2
:1023D0007473727171706F6E6E6D6C6C6B6A6A691A
:1023E0006868676666656464636362616160605FB4
:1023F0005F5E5E5D5D5C5C5B5B5A5A59595858572D
:102400005756565555555454535352525251515094
:1024100050504F4F4F4E4E4D4D4D4C4C4C4B4B4BE7
:102420004A4A4A494949484848474747474646462D
:102430004545454444444443434343424242424168
:102440004141000046EA0646A3F570534FEA16469E
:1024500046EA42564FEAD22242EA415210B54FEACA
:10246000D121A3F1010300F02FF820F0004000F18A
:10247000020C00F0004701EB00501146BCF5006F64
:1024800040EA070000D210BDBAF1000F0AD01CB517
:1024900003B44FF004004FF004014FF000000FBCF4
:1024A000BDE810404FF00001BBF1010FB9BF044877
:1024B0004FF0FF310348002140EA070010BD00BF84
:1024C000FFFFEF7F0000F07F002B9C4630D47700A9
:1024D0002BD01CB54FEA370703B44FF010004FF074
:1024E0001001BAF1000F06D0BCF1000FDCBF40F0C4
:1024F000080040F008014FF000000FBCBDE810409C
:102500000BF1010BBBF1010F08BF5FEA170722BFF8
:1025100012F1010211F101014FF0004143F10003FA
:1025200000F0004043EA00007047F9D35708D0E7B5
:1025300046EA064613F1400F4FEA16461FDD13F137
:10254000200FDFBF16430A46002120335B42BED076
:10255000C3F1200746EA064602FA07F74FEA164695
:1025600046EA0706C3F1200722FA03F201FA07F749
:1025700021FA03F14FF0000342EA0702A7E746EA17
:10258000020646EA06464FEA164646EA0106BCBF80
:1025900046EA0646360C4FF000034FF000024FF0BB
:1025A000000194E72DE9804C9A46934670B491E877
:1025B000380007C831EA400C48BF34EA430C03D561
:1025C000FFF7A3FDFFF780FFF0BCBDE8008C2DE90D
:1025D000804C9A46934670B491E8380007C831EAB7
:1025E000400C48BF34EA430C03D5FFF78EFDFFF7DC
:1025F00029FFF0BCBDE8008C2DE9804C9A4693463B
:1026000070B491E8380007C810F0804F08BF13F08D
:10261000804F03D100F01AF8FFF756FFF0BCBDE879
:10262000008C2DE9804C9A46934670B491E83800AE
:1026300007C810F0804F08BF13F0804F03D100F09F
:1026400005F8FFF7FFFEF0BCBDE8008C20F07F47E7
:1026500080EA030023F07F4C07EB0C03A3F57C53C7
:1026600000F00040A3F1FE0392F0000F00F0B380F1
:1026700095F0000F00F077802DE901494FEA1140F5
:102680004FEA144621EA004800FB06FC24EA06470C
:1026900008FB06F607FB08F800FB07F718EB0648EF
:1026A0004CEB164C4FEA124B18EB07484FEA154615
:1026B0004CEB174022EA0B4E0BFB06FC25EA0647C3
:1026C0000EFB06F607FB0EFE0BFB07F71EEB064E96
:1026D0004CEB164C4FF000061EEB074E4CEB174B25
:1026E00018EB0B0840F1000018EB0E0B58EB00083C
:1026F00040F100008F1A4FF000013CBFC943661B38
:1027000014BFB5EB040C00213CBFC943F61B4FEAD4
:1027100017444EEA8E0E27EA04454FEA1C4704FB95
:1027200007622CEA074C05FB07F70CFB05F604FBD8
:102730000CFC16EB074642EB174216EB0C4642EB3D
:102740001C421BEB060658EB0202414146EA9E067C
:1027500001D5BDE80189B619524141EB0101A3F150
:102760000103BDE801894FEA14454FEA114724EA05
:10277000054621EA074C05FB07F406FB07F70CFBAF
:1027800006F105FB0CFC11EB074144EB17444FEA43
:10279000124711EB0C4144EB1C4422EA074C05FBA9
:1027A00007F206FB07F70CFB06F605FB0CFC16EB25
:1027B000074642EB174216EB0C4642EB1C456A18E3
:1027C00054F1000148BF7047B619524141EB010175
:1027D000A3F10103704795F0000F37D04FEA114283
:1027E0004FEA144721EA024624EA074C02FB07F1AC
:1027F00006FB07F70CFB06F402FB0CFC14EB07448A
:1028000041EB17414FEA154714EB0C4441EB1C41D7
:1028100025EA074C02FB07F506FB07F70CFB06F65B
:1028200002FB0CFC16EB074645EB174516EB0C4676
:1028300045EB1C42121951F1000148BF7047B6190F
:10284000524141EB0101A3F1010370474FEA1445E6
:102850004FEA114724EA054621EA074C05FB07F138
:1028600006FB07F70CFB06F24FF0000605FB0CFC1D
:1028700012EB074241EB174112EB0C4251EB1C41AA
:1028800048BF7047921841EB0101A3F10103704763
:10289000FEE7704772B6FEE701220249024801F0E6
:1028A00029BE0000000000205805002010B5104C83
:1028B00021780A2907D06078802804D20D4A115463
:1028C000401C60700CE00B4800F016F910B109488C
:1028D00000F03AF80020607080210648FEF78DF87D
:1028E000BDE8104001220249034801F003BE000088
:1028F000000000201C00002058050020DFED100A19
:10290000642280EE201AFDEEC10A9FED0E1A10EE31
:10291000901A4A4300EE902A5328F8EEE00A70EE2F
:10292000600A80EE810A00EE901AF8EEE00A30EEBE
:10293000800A01D0572801D1B1EE400A704700004B
:102940000000C842000070422DE9F04788B082467E
:1029500006223FA1FDF7E4FF3F4A02F119056E1E72
:102960006F1F02F10C0402F1100900282DD006227D
:102970003AA15046FDF7D4FFDFF8DC80002808F1CB
:10298000300848D0062237A15046FDF7C9FF00287D
:1029900050D0062235A15046FDF7C2FF002811D1C4
:1029A00008F12400011FC21FCDE904100C38091FD3
:1029B000CDE90282CDE90001031F0D3A2DA1504659
:1029C000FDF756FE08B0BDE8F08723482C30011F04
:1029D0000A1FCDE906100592131F10380096CDE9A5
:1029E00003034B463A462BA15046CDE90145FDF77E
:1029F0003FFE0128E6DB184B187E93ED040AFFF733
:102A00007DFF83ED010A587E93ED030AFFF776FF01
:102A100083ED000AD6E7104800963830011FCDE953
:102A200004100DF1040C4B468CE830013A4623A10A
:102A30005046C5E7084833463C30CDE902704A4667
:102A400026A15046CDE90045FDF712FEBAE7000089
:102A500024475047474100009C0000202447505223
:102A60004D430000244750474C4C0000244750562B
:102A7000544700002447505654472C25662C2563A4
:102A80002C25662C25632C25662C25632C25662C8D
:102A9000256300002447504747412C25662C2566B6
:102AA0002C25632C25662C25632C25642C25642C71
:102AB00025662C25662C2563000000002447505213
:102AC0004D432C25662C25662C25632C25662C254C
:102AD000632C25662C25662C25640000244750476E
:102AE0004C4C2C25662C25632C25662C25632C2527
:102AF000662C25630000000038B5017800222429E7
:102B000020D1012101E05A40491C435C23B12A2B0A
:102B100002D04B29F7DB15E04B2913DADBB22A2B65
:102B200010D1084408A1447885786846FDF738FC40
:102B30009DF80000A04205D19DF80100A84201D1F6
:102B4000012038BD002038BD25303258000000007B
:102B50002DE9F0410446876D00F05EF9064694F8D1
:102B600035000025022806D08020606584F83450A6
:102B70000120BDE8F0812068016821F016010160A4
:102B80002068416921F080014161206C08B9A06C86
:102B900020B12068016821F0080101602068016807
:102BA00021F0010101600CE000F036F9801B0528DE
:102BB00007D920206065032084F8350084F834505C
:102BC000D7E720680068C007EED194F85C103F207A
:102BD0008840B860012084F8350084F83450002023
:102BE000C7E790F83510022903D080214165012004
:102BF0007047052180F835100068016821F0010157
:102C0000016000207047000070B5044600F004F930
:102C10000546601C02D004480078044400F0FCF82B
:102C2000401BA042FAD370BD0C0000202DE9F84FE4
:102C3000DFF8B8A1002201240AF1040B03254FF0AC
:102C40000F090BF1040E00BF0B6804FA02F63340C3
:102C5000B34273D10F7907F00307012F01D0022F80
:102C600016D187684FEA420805FA08FC27EA0C07E4
:102C7000D1F80CC00CFA08FC4CEA070CC0F808C0EC
:102C80004768B7430E79C6F3001696403E43466048
:102C90000E79F643B6070DD0C768560005FA06FC54
:102CA00027EA0C07D1F808C00CFA06FC4CEA070C1E
:102CB000C0F80CC00E7906F00306022E10D1D6081B
:102CC00000EB8608D8F8206057074FEAD76C09FA5E
:102CD0000CF7BE430F6907FA0CF73743C8F82070AA
:102CE00006684FEA420C05FA0CF7BE430F7907F06D
:102CF000030707FA0CF7374307604E6816F4403FA6
:102D00006DD03B4E376847F480473760366822F015
:102D1000030706F480460096364E07EB060CDCF8F7
:102D2000086897073F0F09FA07F826EA0806DFF850
:102D3000C880404503D14FF000081EE04FE0DFF8A7
:102D4000BC80404502D14FF0010816E0DFF8B080AA
:102D5000404502D14FF002080FE0DFF8A88040455F
:102D600002D14FF0030808E0DFF89C80404502D113
:102D70004FF0040801E04FF0070808FA07F848EAA6
:102D80000608CCF80888DAF800605746D1F804C085
:102D90009E435FEACC3C00D51E433E60DBF80060FA
:102DA0005F46D1F804C09E435FEA8C3C00D51E43C9
:102DB0003E60DEF800607746D1F804C09E435FEACB
:102DC000CC2C00D51E433E60084F0C373E68D1F82E
:102DD00004C09E435FEA8C2C00D51E433E60521C0B
:102DE000102AFFF431AFBDE8F88F0000003C01402D
:102DF000443802400030014000000240000402401C
:102E000000080240000C0240001002400AB181613B
:102E100070470904FBE70000014880687047000024
:102E20000C000020024881680278114481607047DC
:102E30000C0000200B4810B5016841F400710160DE
:102E4000016841F480610160016841F480710160B2
:102E5000032000F06FF80F2000F006F800F024F8CF
:102E6000002010BD003C024070B50D4D04464FF4EB
:102E70007A712878B1FBF0F00A490968B1FBF0F0EB
:102E800000F0F1FE48B9102C07D200222146501E56
:102E900000F030F800206C6070BD012070BD0000B3
:102EA0000C000020180000200A4808B5016841F411
:102EB00080410160006800F4804000900548001FD8
:102EC000016841F080510160006800F0805000907E
:102ED00008BD000044380240002809DB00F01F0252
:102EE000012191404009800000F1E020C0F800116C
:102EF00070470000F0B40E4B1B680C46C3F302236E
:102F0000C3F10705042D00D90425191D072901D295
:102F1000002300E0DB1E012606FA05F1491E2140D0
:102F200099409E40761E16403143F0BC02F0B9B97C
:102F30000CED00E0064900F0070208684FF6FF03B9
:102F4000184040EA0220034A10430860704700001E
:102F50000CED00E00000FA052DE9F8430446006896
:102F60004FF00109C1074FF0000601D1400729D5F4
:102F7000DFF82081C8F86860FFF74EFF0746464D2E
:102F800005E000BFFFF748FFC01B022859D828689A
:102F90000001F7D4A068217B800140EA01706168DC
:102FA00008433D4984310860C8F86890FFF734FF52
:102FB000074604E0FFF730FFC01B022841D828680D
:102FC0000001F7D52078800752D53348403001689A
:102FD00041F0805101600068304D00F08050009059
:102FE000286840F480702860FFF716FF074604E069
:102FF000FFF712FFC01B022823D82868C005F7D5A9
:10300000254D7035286810F4407020D0218A01F4D5
:10301000407181421BD02868214920F44070C1F8DA
:1030200000900E6028602868C00710D0FFF7F4FEFB
:10303000064641F2883707E0FFF7EEFE801BB842F4
:1030400002D90320BDE8F88328688007F4D52169F8
:103050001148C1F301220830032A12D0016821F47B
:10306000F81101602868218AC1F30B010843286028
:103070002078000703D50B49207DC1F8E00100202E
:10308000E0E70268084B22F4F81219400A43026094
:10309000E8E70000000047420038024000700040AE
:1030A000400E474200104742FFFCFF0F2DE9F0475A
:1030B0000E46050065D0DFF81481D8F80000F7B29D
:1030C00000F00700B04207D288F80070D8F800007E
:1030D00000F00700B04254D128683D4C810712D55A
:1030E000400703D5206840F4E050206028780007AE
:1030F00003D5206840F4604020602068A96820F073
:10310000F000084320602878C0072DD03049686857
:103110000839012812D0022813D0032811D00968D9
:10312000890700292DDA216821F00301014321607C
:10313000FFF772FE814641F2883A0EE00968890382
:10314000EFE709688901ECE7FFF766FEA0EB0901EC
:10315000514502D90320BDE8F0872068696800F076
:103160000C00B0EB810FEFD1D8F80010404601F011
:103170000701B14207D90770006800F00700B042AC
:1031800001D00120E7E72878400705D52068E968E5
:1031900020F4E050084320602878000706D5206816
:1031A000296920F4604040EAC100206000F038F84E
:1031B0002168084AC1F30311515CC8400649086000
:1031C00006480068FFF750FE0020C4E7003C0240BC
:1031D00008380240A05F00081800002010000020FE
:1031E0000448054900680968044AC1F38221515C1A
:1031F000C84070471800002008380240B05F00083F
:103200000448054900680968044AC1F34231515C29
:10321000C84070471800002008380240B05F00081E
:10322000154810B5006810F00C02144813D014496A
:10323000042A0FD0082A0ED10F4C241F22682368BD
:1032400002F03F025B0207D52068C0F38810A0FBA4
:10325000010106E0084610BD2168C1F38811A1FBF9
:1032600000010023FDF724F82168C1F30141491C46
:103270004900B0FBF1F010BD083802400024F40012
:1032800040787D012DE9F84F04006ED02078DFF8FA
:103290004C93C007A9F104054AD009F10400016864
:1032A000C1F38101012908D00068C0F38100022820
:1032B0000AD1D9F80000400206D52868800337D526
:1032C00060680028E1D033E06068B0F5803F10D03E
:1032D000B0F5A02F286810D020F48030286028682E
:1032E00020F4802028606068A8B1FFF795FD0646AD
:1032F0000DE0286840F48030F4E740F48020286036
:10330000F7E700BFFFF788FD801B642873D82868A3
:103310008003F7D50CE0FFF77FFD064605E000BF10
:10332000FFF77AFD801B6428F0D828688003F7D463
:103330002078DFF8AC8280074FF0000A3ED5A7481E
:10334000001D016811F00C0F08D00068C0F3810067
:1033500002280BD1D9F80000400207D42868800762
:1033600016D5E068012800D112E033E1E068B8B179
:103370000120C8F80000FFF74FFD064605E000BF3A
:10338000FFF74AFD801B0228C0D828688007F7D5C0
:103390002868216920F0F80040EAC10028600DE0AB
:1033A000C8F800A0FFF738FD064604E0FFF734FD3B
:1033B000801B02281FD828688007F7D420780007D0
:1033C00022D5864F87486169703771B1012101604C
:1033D000FFF722FD064604E0FFF71EFD801B0228D2
:1033E00009D838688007F7D50EE0C0F800A0FFF7CD
:1033F00013FD064605E082E0FFF70EFD801B022864
:103400007DD838688007F7D42078400768D5DFF882
:10341000CCB100270BF13C0BDBF80000C0000BD453
:10342000DBF8001041F08051CBF80010DBF8000011
:10343000012700F0805000906B4E3068C00510D41A
:10344000306840F480703060FFF7E6FC009005E0E3
:10345000FFF7E2FC0099401A022850D83068C005F6
:10346000F6D55E4EA0686C3601280FD0052830686E
:1034700010D020F001003060306820F0040030608F
:10348000A068B8B1FFF7C8FC00900FE0306840F0CA
:103490000100F4E740F004003060F7E7FFF7BCFC00
:1034A0000099411A41F28830814266D8306880071D
:1034B000F4D50EE0FFF7B0FC009007E0FFF7ACFC9E
:1034C0000099411A41F28830814256D8306880070D
:1034D000F4D42FB1DBF8001021F08051CBF80010AC
:1034E000A069C8B33D49091D0968C1F381010229DA
:1034F0004AD00228504607D0C8F8600000E03CE0FF
:10350000FFF78AFC04463BE04746C8F86000FFF737
:1035100083FC064605E000BFFFF77EFC801B022807
:103520002BD828688001F7D4D4E907010843A16AA1
:103530002E4A490802EB0141626A41EA82110843BE
:1035400094F82C1040EA0161C9F800100120386697
:10355000FFF762FC044606E03EE000BFFFF75CFCBC
:10356000001B022809D828688001F7D534E000BF85
:10357000FFF752FC001B022802D90320BDE8F88F98
:1035800028688001F4D427E00128F7D0D9F800009A
:10359000E26900F4800191421CD1226A00F03F01EF
:1035A000914217D147F6C071626A0140B1EB821FA8
:1035B00010D1A26A4FF0FF3300F4403103EB520206
:1035C000B1EB024F06D194F82C1000F07060B0EB14
:1035D000016F01D00120D1E70020CFE7043802407D
:1035E00000004742800E4742007000400000FFFF8D
:1035F00010B500680B4641680D480140080CD870B2
:10360000C1F304245C7001F03F049C70C1F34231AB
:10361000197052B901F0DBFAD870587801F0D7FA76
:103620005870987801F0D3FA9870002010BD00000F
:103630003FFFFF0010B50B460168896A59600168B9
:103640000969C1F30E019960006801680E480140E4
:10365000C1F305401870C1F306245C7001F07F04CB
:103660009C70402404EA1141D97052B901F0AFFABC
:103670001870587801F0ABFA5870987801F0A7FAF2
:103680009870002010BD00007F7F7F0070B504009F
:1036900002D0607F10B106E0012070BD00202077CD
:1036A000204600F049F8022060772168CA2048626D
:1036B000216853204862204601F09EFAFF25042627
:1036C00018BB206881681B4A1140816021688868A6
:1036D00062681043D4E904231A43104388602168C8
:1036E000E068086120680169228941EA02410161BC
:1036F0002068C16821F08001C16020688068800670
:1037000007D4204600F010F918B1206845626677AA
:10371000C2E72068016C21F4802101642068016CFB
:10372000A26911430164206845620120607700208E
:1037300070BD0000BFFF8FFF10B586B00446182192
:103740006846FDF75AF90949206888420CD10220E1
:103750000090C00104906846FFF7FEFB08B1FFF738
:1037600099F803490120086006B010BD0028004008
:103770003C0E47422DE9F0470446007F0B460128E6
:103780001FD04FF0010984F81C9002206077DAB155
:103790009878D97840EA014558781978000240EACB
:1037A000413005432168CA2048622168532048629D
:1037B000204601F021FA0026FF274FF0040860BBE5
:1037C0001AE00220BDE8F0875878C10603D500F062
:1037D000EF000A305870D87801F002FA02045878E5
:1037E00001F0FEF942EA0022987801F0F9F902436B
:1037F000187842EA4035D5E70F4805402068456013
:103800002068C16821F08001C1602068806880065E
:103810000AD4204600F088F830B12068476284F866
:103820001D8026770120CDE72068476284F81D902F
:1038300026770020C6E700003FFFFF002DE9F04794
:103840000446007F0D46012827D04FF0010A84F876
:103850001CA0022060772068002680684FEA406044
:10386000F2B1002800DBEE70A878297840EA014721
:103870006878E978000240EA014007432168CA20DD
:103880004862216853204862204601F0B5F94FF0A4
:10389000FF084FF00409A0BB16E00220BDE8F08746
:1038A000002800DBEE70287801F09AF902046878AD
:1038B00001F096F942EA0022A87801F091F902435A
:1038C000E87842EA0047D9E71648074020680760D1
:1038D0002068816821F480218160D5E903010843D3
:1038E00021688A68104388602068C16821F08001DF
:1038F000C1602068806880060BD4204600F014F870
:1039000038B12168C1F8248084F81D902677012001
:10391000C4E72168C1F8248084F81DA02677002020
:10392000BCE700007F7F7F0070B504460068C16877
:1039300021F0A001C160FFF76FFA05464FF47A76D7
:1039400007E000BFFFF768FA401BB04201D903202F
:1039500070BD2068C0688006F4D5002070BD70B5C9
:10396000040009D0606A002540B125616561A56247
:1039700094F8510040B10CE0012070BD6068B0F5D2
:10398000827FF4D0E561F2E784F85050204600F0E1
:1039900045F8022084F851002068016821F04001B8
:1039A0000160A088218900F4827001F40441084379
:1039B000A18901F400610843217C01F00201084360
:1039C000217D01F001010843218B01F400710843BE
:1039D000217F01F03801084394F8201001F08001A4
:1039E0000843218D01F40051084321680860A06953
:1039F000042101EA104094F8241001F0100108435A
:103A0000216848602068C16921F40061C161656571
:103A1000012084F85100002070BD000010B586B070
:103A2000044614216846FCF7E8FF134920688842E1
:103A300020D112480021026842F4805202600068DE
:103A400000F4805005900D481438026842F00102DD
:103A50000260006800F001000590E0200090022064
:103A6000CDE9010103200390052004906946044834
:103A7000FFF7DCF806B010BD0030014044380240CA
:103A8000000002402DE9F84F044690F8500000274E
:103A90000A9E1D4692468B464FF0010901280ED022
:103AA000012084F85000FFF7B7F9804694F85100E0
:103AB000616801280CD0B1F5827F07D102E00220B5
:103AC000BDE8F88FA16809B9042801D00227C2E037
:103AD000BBF1000F27D0BAF1000F24D01DB394F82A
:103AE0005100042802D0052084F8510000206065B0
:103AF000C4F838A0E587A587C4F830B0E586A58668
:103B00002064606420680168490603D4016841F0BC
:103B100040010160E068B0F5006F606805D0E8B36F
:103B2000012D46D07FE0012795E008B1012D39D164
:103B3000206B21680088C860206B801C2063E08EA9
:103B4000401EE0862EE02068816889070FD5E18E4F
:103B500069B1B9F1010F0AD1216B0988C160206BED
:103B6000801C2063E08E401EE0864FF00009206834
:103B70008168C9070CD0E18F51B1C068A16B088082
:103B8000A06B801CA063E08F401EE0874FF001090E
:103B9000FFF742F9A0EB0800B04200E009E001D3D2
:103BA000701C50D1E08E0028CDD1E08F0028CAD102
:103BB0003FE0206B216800780873206B401C206375
:103BC000E08E401EE0862EE02068816889070FD5D0
:103BD000E18E69B1B9F1010F0AD1216B0978017346
:103BE000206B401C2063E08E401EE0864FF00009F1
:103BF00020688168C9070CD0E18F51B1C068A16B02
:103C00000870A06B401CA063E08F401EE0874FF05F
:103C10000109FFF701F9A0EB0800B04202D3701CC4
:103C200001D010E07EB1E08E0028CDD1E08F0028D9
:103C3000CAD142463146204601F03CF828B101275E
:103C40002020606507E0032705E0A06818B9206818
:103C5000C16880680090012084F85100002084F839
:103C6000500038462CE710B5401EB0F1807F01D3DC
:103C7000012010BD4FF0E02460610F21601701F0BA
:103C800010FB0020A06107202061002010BD7047BC
:103C90007047000070B590F83C20012A2CD0012418
:103CA00080F83C40022280F83D2003685A689D68F5
:103CB00022F070060A6832435A60104B02689A423A
:103CC0000ED0B2F1804F0BD00D4B9A4208D00D4B65
:103CD0009A4205D00C4B9A4202D00C4B9A4204D126
:103CE000496825F080031943916080F83D40002128
:103CF00080F83C10084670BD022070BD00000140F5
:103D00000004004000080040000C0040004001405A
:103D100010B5040003D094F83D0010B107E0012075
:103D200010BD002084F83C00204600F01FF802205F
:103D300084F83D00211D206801F0A0F8012084F8DE
:103D4000460084F83E0084F83F0084F8400084F880
:103D5000410084F8420084F8430084F8440084F869
:103D6000450084F83D00002010BD000008B5114A50
:103D700001681148914211D1016841F002010160CE
:103D80000068002200F00200009011461D20FFF79D
:103D9000B1F8BDE808401D20FFF79EB8074A9142E0
:103DA00007D1016841F008010160006800F00800D7
:103DB000009008BD0004004040380240000C004064
:103DC00090F83D10012901D001207047022180F8B0
:103DD0003D1000680E4988420ED0B0F1804F0BD0E4
:103DE0000C49884208D00C49884205D00B498842CA
:103DF00002D00B49884204D1816801F007010629ED
:103E000003D0016841F0010101600020704700000B
:103E1000000001400004004000080040000C004089
:103E20000040014090F83D10012901D00120704769
:103E3000022180F83D100168CA6842F00102CA60A0
:103E400000680E4988420ED0B0F1804F0BD00C496B
:103E5000884208D00B49884205D00B49884202D0DD
:103E60000A49884204D1816801F00701062903D07C
:103E7000016841F00101016000207047000001402D
:103E80000004004000080040000C004000400140D9
:103E900070B5044690F83C000025012817D0012693
:103EA00084F83C60022084F83D002068826822F09B
:103EB000770222F47F4282600868502838D00DDCF7
:103EC00020284FD005DC90B3102811D14AE0022001
:103ED00070BD302846D040280AD13BE060282FD062
:103EE00070280DD0B0F5805F03D0B0F5005F12D020
:103EF000012584F83D60002084F83C00284670BD10
:103F0000CB68D1E90121206801F004F820688168BC
:103F100041F0770109E0CB68D1E90121206800F088
:103F2000F9FF2068816841F480418160E1E719E090
:103F3000CA684968206800F0FFFF5021206806E049
:103F4000CA684968206801F008F86021206800F01C
:103F5000EBFFCEE7CA684968206800F0EDFF40211A
:103F60002068F4E7226801461046F0E7704770B514
:103F70000446006801694FF00005C943890715D45C
:103F8000C168C943890711D4E91E01610120207766
:103F9000206880698007204602D0FFF7E7FF04E031
:103FA00000F098F8204600F096F82577206801691F
:103FB000C943490717D4C168C943490713D46FF0EF
:103FC00004010161022020772068806910F4407F9D
:103FD000204602D0FFF7CAFF04E000F07BF820463D
:103FE00000F079F8257720680169C943090716D4DC
:103FF000C168C943090712D46FF0080101610420A8
:1040000020772068C0698007204602D0FFF7AEFF06
:1040100004E000F05FF8204600F05DF825772068A6
:104020000169C943C90617D4C168C943C90613D475
:104030006FF010010161082020772068C06910F43A
:10404000407F204602D0FFF791FF04E000F042F8E5
:10405000204600F040F8257720680169C943C90768
:1040600008D1C168C943C90704D1891E016120462E
:1040700000F032F820680169C943090609D4C16813
:10408000C943090605D46FF0800101612046FFF79E
:10409000FEFD20680169C943490609D4C168C943C6
:1040A000490605D46FF040010161204600F052F846
:1040B00020680169C94389060BD4C168C9438906D0
:1040C00007D46FF0200101612046BDE87040FFF782
:1040D000DFBD70BD704770472DE9F04100221949DE
:1040E0001948FFF7A7FA002218491748FFF780FA86
:1040F000144D174F0024A5F5077600BF04EBC4004C
:1041000000EB400006EB400090F8341011B990F835
:10411000352072B12A788A42697890F83520A1EB6F
:10412000020100D03C31032907DB283001F0EAF915
:10413000012280213846FEF769FE641C0A2CDDDD71
:10414000BDE8F08110030020500400200200002090
:10415000000402407047704770470000F8B50168DE
:1041600004460868CA684B6910F00F0F4FF000054D
:1041700059D003F0010602F49077374365D0C107A8
:1041800005D0D10503D5216C41F00101216441071F
:1041900005D5D90703D0216C41F0020121648107C4
:1041A00005D5D90703D0216C41F004012164010732
:1041B00007D502F02001314303D0216C41F0080102
:1041C0002164216C00293AD0800604D5900602D5DE
:1041D000204600F003FF20684069216CC0F3801086
:1041E000090700D460B3204600F0D1FE2068406982
:1041F000400621D52068143050E8001F21F040010E
:1042000040E80012002AF5D1A06BA8B16C49016505
:10421000A06BFEF7E6FC002811D0A06B016D01B089
:10422000BDE8F040084783060FD593060DD520461C
:10423000BDE8F84000F0D2BE2046FFF78DFFF8BD84
:104240002046FFF789FF2564F8BD266B2023012E49
:1042500079D1C60677D5D60675D508684868009026
:104260004869400640D5A16B086840680004000C0E
:10427000EAD0A28D8242E7D9E085C869B0F5807F97
:104280002DD020680C3050E8001F21F4807140E8E8
:104290000012002AF5D12068143050E8001F21F0E8
:1042A000010140E80012002AF5D12068143050E8DE
:1042B000001F21F0400140E80012002AF5D184F8E7
:1042C0003E30256320680C3050E8001F21F01001BB
:1042D00040E80012002AF5D1A06BFEF739FCA08D52
:1042E000E18D401A81B229E0A08DE18D401A81B2A2
:1042F000E08D0028A8D00029A6D020680C3050E816
:10430000002F22F4907240E80026002EF5D120689C
:10431000143050E8002F22F0010240E80026002E61
:10432000F5D184F83E30256320680C3050E8002F2A
:1043300022F0100240E80023002BF5D12046FFF7C1
:104340000AFFF8BDFFE705062BD5150629D594F819
:104350003D002128F5D1A068B0F5805F01D120692A
:10436000B0B1206A411C2162216800784860E08C6D
:10437000401E0004000CE084E3D12068C16821F0F5
:104380008001C1602068C16841F04001C160D8E788
:10439000206A0088C0F308004860206A801C206200
:1043A000E5E74006CDD55006CBD5CA68204622F0B9
:1043B0004002CA6084F83D3000F031F9C1E70000E6
:1043C0007F4F000870B5040004D094F83D0000252C
:1043D00010B106E0012070BD84F83C50204600F08A
:1043E00023F8242084F83D002068C16821F400519E
:1043F000C160204600F052FE2068016921F490411E
:1044000001612068416921F02A0141612068C16889
:1044100041F40051C1602564202084F83D0084F8F7
:104420003E00002070BD000070B586B00446142127
:104430006846FCF7E2FA2B4E236800212A4A022440
:1044400003252A48B34222D1274B10331E6846F475
:1044500000361E601B6803F400330593136843F0B5
:1044600001031360126802F0010205920C2200920F
:10447000CDE901410721CDE903516946FEF7D6FB9D
:10448000002205212620FEF735FD262025E0184EC6
:10449000B34224D1144B14331E6846F020061E602C
:1044A0001B6803F020030593136843F001031360B6
:1044B000126802F0010205924FF4C0520092CDE959
:1044C00001410821CDE903516946FEF7AFFB002207
:1044D00006214720FEF70EFD4720FEF7FDFC06B043
:1044E00070BD00000044004030380240000002402F
:1044F0000014014090F83E30202B0ED159B152B13A
:1045000090F83C30012B08D0012380F83C30002388
:10451000036300F049BE012070470220704700008D
:1045200010B500680E49884219D1FEF7BFF90D4950
:104530000D4891ED010AB5EEC00AF1EE10FA08D16E
:1045400091ED000AB5EEC00AF1EE10FA01D1012298
:1045500000E00022BDE810404021FEF757BC10BD2E
:10456000004400409C000020000402402DE9F84374
:10457000044690F83D001F4616460D4620284CD1B3
:10458000C5B1BEB194F83C00012846D0012084F8A2
:104590003C004FF00008C4F84080212084F83D0022
:1045A000FEF73AFCA6848146E684A068B0F5805FF9
:1045B00003D004E00120BDE8F883206928B12E462D
:1045C0005FF0000584F83C800EE00026FAE78021C9
:1045D000204600F004FEA0B9AEB116F8010B216828
:1045E0004860E08C401EE084E08C4B464FF00002B7
:1045F00000970028EBD14FF04001204600F0EFFD7E
:1046000030B10320D7E735F8020BC0F30800E6E726
:10461000202084F83D000020CDE70220CBE7704742
:10462000FEE710B5142000F0BCF8800705D1032187
:10463000BDE81040142000F0D6B810BD7CB504468B
:10464000002529460D2000F064F9932020702020D9
:10465000607001A823460090022219460C2000F049
:10466000CEF8010009D1225C401C5540C0B204289C
:10467000F9D3205CA84200D0022108467CBD2DE978
:10468000F0410E46074615460421052000F036F895
:1046900080210A2000F0A7F8002405E0395D0920F8
:1046A00000F037F9641CE4B2B442F7D303210120CF
:1046B00000F02FF9FF24052000F073F8641E14F0B9
:1046C000FF0401D04007F6D5222000F06AF82870D8
:1046D000212000F066F86870BDE8F08170B50546ED
:1046E0000146262000F064F8040003D12846FFF7B5
:1046F000A5FF044600F01CF8204670BD70B50C46BE
:10470000054600F04EF820EA04012846BDE8704056
:1047100000F0FFB810B50022835C8C5CA34201D08E
:10472000022010BD521CD2B2052AF5D3002010BDC4
:104730000EB550208DF8040000208DF805000DF115
:104740000602022101A8FFF79AFF02A801AB009020
:10475000042219460C2000F052F80EBD10B500F0EE
:104760003EF88D212A2000F0D4F83E212B2000F0C5
:10477000D0F81E212D2000F0CCF800212C2000F0D4
:10478000C8F87021262000F0C4F84021152000F060
:10479000C0F83D21112000F0BCF8BDE81040FFF743
:1047A00040BF7E2101EA400040F0800000F052BA94
:1047B0007CB50C46054607210D2000F0AAF82570AF
:1047C00001A823460090012219460C2000F017F89A
:1047D00018B9BDF80410102900D002207CBD0F21AB
:1047E000012000F096B870B50C460546FFF7D9FFDA
:1047F00040EA04012846BDE8704000F08AB82DE97F
:10480000FF5F00270226DDF838A015468B4681465B
:10481000B8460C2805D0B9F10E0F05D1122710208B
:1048200001E077273020804647F08001022000F029
:1048300070F880210420FFF761FF80210A20FFF734
:10484000D2FF0021012000F064F8002406E01BF8EC
:104850000410092000F05DF8641CA4B2AC42F6D349
:104860004946012000F055F8B9F10C0F03D1802121
:104870000D20FFF7B8FF4FF4FA650420FFF791FF12
:104880006D1E2D0404462D0C04D0E00702D114EA5D
:10489000080FF2D080210D20FFF730FF35B1062040
:1048A000FFF77FFF10F01B0F04D0022604B0304644
:1048B000BDE8F09F00263C40E00700D00126B9F19A
:1048C0000C0FF3D10A20FFF76CFF04460C20FFF712
:1048D00068FF10F007004FEAC40104D0083908440B
:1048E000AAF8000001E0AAF8001024B1102C04D9A5
:1048F0001024002503E00124FBE7002506E0092041
:10490000FFF74FFF039948556D1CADB2A542F6D392
:10491000CCE77E2202EA400000F0B4B9F0B587B0DF
:1049200014216846FCF769F821480024016841F029
:1049300004010160016801F004010591016841F082
:1049400080010160016801F080010591016841F07A
:1049500001010160016801F001010591016841F068
:10496000020101600068134E00F002000590002271
:1049700010213046FEF74AFA0F4F0022E021384658
:10498000FEF744FA01251020CDE90005CDE90254D7
:1049900069463046FEF74AF9E0200090CDE901541F
:1049A000694638460394FEF741F907B0F0BD0000B0
:1049B00030380240000002400004024010B586B0CA
:1049C00014216846FCF719F81C4800241A4905947C
:1049D000C0E900147F218160FF21C0E90314446114
:1049E0008461FEF753FE08B1FDF754FF8DF80040D7
:1049F0008DF801408DF802404FF48020CDE903404E
:104A0000012269460D48FEF719FF08B1FDF742FF84
:104A100001208DF814008DF815008DF8160002465F
:104A20008DF8174005A90548FEF7A4FE002801D01F
:104A3000FDF730FF06B010BD0028004050040020F4
:104A40000F4810B50D4901604FF48271416000219B
:104A50008160C1604FF400720161C0E90512C1615B
:104A60000162416281620A21C162FEF778FF00287B
:104A700003D0BDE81040FDF70DBF10BD0030014070
:104A80007004002010B586B00024184800940194EA
:104A90000294039404941449059401604CF250313B
:104AA000C0E9011445F6BF51C0E9031480218161BA
:104AB000FFF72EF908B1FDF7EDFE4FF4805000909E
:104AC00069460A48FFF7E4F908B1FDF7E3FE0494EC
:104AD00004A906480594FFF7DDF8002801D0FDF78A
:104AE000D9FE06B010BD000000040040C80400203C
:104AF00010B586B0002417480094019402940394E2
:104B0000049413490594016044F62061C0E901143E
:104B1000611EC0E903148461FFF7FAF808B1FDF7DC
:104B2000B9FE4FF48050009069460A48FFF7B0F98B
:104B300008B1FDF7AFFE049404A906480594FFF7F9
:104B4000A9F8002801D0FDF7A5FE06B010BD0000B1
:104B5000000C0040100500200C4810B50A49016007
:104B60004FF416514160002181600C22C160C0E900
:104B700004128161C161FFF725FC002803D0BDE864
:104B80001040FDF787BE10BD0044004058050020CE
:104B90000C4810B50A4901604FF4165141600021DC
:104BA00081600C22C160C0E904128161C161FFF71C
:104BB00009FC002803D0BDE81040FDF76BBE10BD16
:104BC000001401409C050020FEE7FEE77047010944
:104BD00001EB810100F00F0000EB4100C0B2704713
:104BE000002102E00A38C0B2491C0A28FAD209079B
:104BF00040EA11607047000070B504460068C16863
:104C0000490614D44FF0FF31C160FEF705F905469F
:104C10004FF47A7607E000BFFEF7FEF8401BB04283
:104C200001D9032070BD2068C0684006F4D500207B
:104C300070BD00000EB501238DF804000A2000901D
:104C400002AA01A90248FEF71DFF9DF808000EBD4B
:104C50007004002070B50A4D044600221021284639
:104C6000FEF7D4F82046FFF7E5FF0020FFF7E2FF4C
:104C70000446012210212846FEF7C8F8204670BDE0
:104C80000000024070B50A4C0E4605460022102175
:104C90002046FEF7BBF82846FFF7CCFF3046FFF76B
:104CA000C9FF2046BDE8704001221021FEF7AEB8D2
:104CB0000000024038B504461248134B0068B0FBB0
:104CC000F3F04FF47A73584300906068B0F5827F38
:104CD0000DD10B46009200228021204600F016F8EC
:104CE00070B1606D40F020006065032038BD009811
:104CF00030B1401E009020688068C0430006F6D5A1
:104D0000002038BD1800002000366E012DE9F84360
:104D10001E46914688460446089DFEF77DF8401BD6
:104D2000351AFEF779F8074625480068C0F3CB30FE
:104D3000684338E0701C37D0FEF76EF8C01BA842FD
:104D400003D215B1009860B32CE02068416821F0CF
:104D5000E00141606068B0F5827F0BD1A068B0F5DA
:104D6000004F02D0B0F5806F04D12068016821F0B7
:104D700040010160A06AB0F5005F09D120680168B8
:104D800021F4005101602068016841F40051016084
:104D9000012084F85100002084F850000320BDE871
:104DA000F8830025401E00902068816838EA0100E1
:104DB00004D000214945BDD10020F0E70121F9E7E9
:104DC000180000207047FEF72DB8000030B593B0F2
:104DD00030216846FBF711FE14210CA8FBF70DFEED
:104DE0001D480024016841F080510160006800F016
:104DF000805011901948016841F4404101600068F9
:104E0000022500F4404011900620009001200290FD
:104E100003901020049006950820CDE9074050200B
:104E2000CDE9090504200B906846FEF72BFA08B17E
:104E300072B6FEE70F20CDE90C059020CDE90E04F7
:104E400000210CA81094FEF731F9002801D072B6A9
:104E5000FEE713B030BD0000403802400070004053
:104E60000248016841F470010160704788ED00E07C
:104E70000148FFF77CB80000C8040020F0B50268C4
:104E80001D4B1E4C9F031E4D1E4E984207D0B8422C
:104E900005D0A04203D0A84201D0B04204D122F0F4
:104EA000700C4A6842EA0C02984210D0B8420ED008
:104EB000A0420CD0A8420AD0B04208D0124CA04266
:104EC00005D0124CA04202D0114CA04203D122F4D2
:104ED0004074CA6822434C6922F080022243026077
:104EE0008A68C2620A688262984201D109690163D4
:104EF00001214161F0BD00000000014000040040BC
:104F000000080040000C0040004001400044014007
:104F10000048014010B5846842EA032224F47F442B
:104F20000A432243826010BD826822F070020A4365
:104F300042F007018160704710B5036A046A24F0EB
:104F400001040462846924F0F00444EA021423F0AA
:104F50000A020A438461026210BD10B5036A23F09D
:104F6000100303628369046A23F4704343EA023244
:104F700024F0A00343EA01118261016210BD10B563
:104F8000806B0021C185C184FFF7E6F810BD016880
:104F90000C3151E8002F22F4907241E80023002BDD
:104FA000F5D10168143151E8002F22F0010241E8E7
:104FB0000023002BF5D1016B012909D101680C31C7
:104FC00051E8002F22F0100241E80023002BF5D118
:104FD000202180F83E1000210163704708B590F849
:104FE0003E10222901D0022008BD82684FF4805370
:104FF0009A4201D1016921B1816A9A421BD04AB11A
:105000000AE00268816A5268C2F308020A80816A73
:10501000891C08E0026972B10268526802F07F02DE
:105020000A70816A491C8162C18D491E0904090CFC
:10503000C18503D019E002685268F1E70168CA68C7
:1050400022F02002CA600168CA6822F48072CA6035
:1050500001684A6922F001024A61202180F83E106D
:10506000016B012903D0FFF75BFA002008BD002186
:10507000016301680C3151E8002F22F0100241E871
:105080000023002BF5D101680A68D20602D50A6810
:1050900049680091818DFFF75EF8E6E770B5044638
:1050A00000680169E26821F44051114301612169FE
:1050B000A068E26908436169114308432168CA682E
:1050C00049F20C639A430243CA6020684169A269AD
:1050D00021F440711143416131492068884202D076
:1050E0003049884202D1FEF78BF801E0FEF778F8EC
:1050F000E2690023192164253226B2F5004F626867
:1051000028D0A0FB0101930F9200FBF7D1F80146D4
:10511000B0FBF5F06FF01802504301EB800006EB96
:105120000010B0FBF5F000F0F002B1FBF5F002EB7F
:105130000012B1FBF5F06FF01803584301EB80004B
:1051400006EB0010B0FBF5F000F00F0021681044F2
:10515000886070BDA0FB010192185B41FBF7A8F8C5
:105160000146B0FBF5F00201B1FBF5F06FF018035A
:10517000584301EB800006EBC000B0FBF5F000F0F7
:10518000F80002EB4002B1FBF5F0584301EB800060
:1051900006EBC000B0FBF5F000F00700D6E700001A
:1051A000001001400014014081628285C285002107
:1051B0000164222280F83E2080F83C100168CA6811
:1051C00042F48072CA6001684A6942F001024A6191
:1051D0000068C16841F02001C160002070472DE9DE
:1051E000F041984617460E460446069D27E0681C87
:1051F00025D02DB1FDF710FEA0EB0800A8421ED966
:1052000020680C3050E8001F21F4D07140E80012F3
:10521000002AF5D12068143050E8001F21F0010168
:1052200040E80012002AF5D1202084F83D0084F8DF
:105230003E00002084F83C000320BDE8F081206897
:10524000006836EA000004D00020B842CFD0002029
:10525000F3E70120F9E700000148FEF77FBF0000F7
:10526000580500200148FEF779BF00009C0500208A
:10527000FEE703B401984100009850EAC12018BF2E
:1052800004204A0D18BF40F0010040F2FF72B2EB5B
:10529000515F08BF40F00200012808BF052002B09E
:1052A00070470907090E002804DB00F1E02080F8B0
:1052B0000014704700F00F0000F1E02080F8141D8A
:1052C000704700000000000030B52DED048B81B068
:1052D000B0EE408AF0EE608A6A4651EC180B00F09E
:1052E00037F900989FED329B7E300090002821DC3A
:1052F00053EC192B51EC180B00F0A8FB1AD000212D
:1053000040F608004FF00000044651EC180B00F086
:1053100057FB08EE100A40F6080004EA00014FF0BF
:105320000000B5EEC08AF1EE10FA04BF0220FCF7CF
:10533000E4FB2DE00098FF2830DB002108464FF009
:10534000000000F4400553EC192B51EC180B00F051
:10535000F3FC8CBF002401240220FCF7CEFB9FED60
:10536000168A4DB1002C0CBF4FF400004FF48000A2
:10537000A84218BF9FED118A042108464FF0000093
:10538000002C01BFB1EE480A01B0BDEC048B30BD6A
:10539000B0EE480A01B0BDEC048B30BD51EC180BE7
:1053A00000F00EFB01B000EE100ABDEC048B30BD26
:1053B00000000000000000000000807FFFFF7F7FF2
:1053C00030B540F2FF742DED048BF0EE608A18EEDC
:1053D000901A85B0B0EE408A9FED2B9B05468DED6F
:1053E000008B34EA115147D053EC192B51EC180BB8
:1053F00000F02CFB40D02A4651EC180B00F084FD45
:1054000041EC180B18EE900A8DED008B34EA105029
:105410001CD053EC192B51EC180B00F017FB2BD1BF
:105420000220FCF76AFB00F043F810EE901A18EE29
:10543000900A8DED020B8DED008B61F31E00039041
:105440009DED020B05B0BDEC048B30BD0220FCF7D6
:1054500054FB00F01DF810EE901A18EE900A8DED36
:10546000020B8DED008B61F31E0003909DED020B8E
:1054700005B0BDEC048B30BD05B0B0EE480AF0EECF
:10548000680ABDEC048B30BD000000000000000085
:105490009FED050B10B553EC102B51EC100B00F0E9
:1054A0004DFB41EC100B10BD00000000000000702F
:1054B0009FED050B10B553EC102B51EC100B00F0C9
:1054C0003DFB41EC100B10BD00000000000000107F
:1054D00010B5044691ED000BFFF7F6FE84ED000ACF
:1054E00010BD10B5044690ED000B0846FFF768FFAD
:1054F00084ED000B10BD30380A2801D2012070471E
:105500000020704710B5024607A10948FAF748FF86
:1055100014231A4606490748FFF728F8BDE810404B
:1055200096210348FBF769BA41544425730D0A00DC
:10553000240300209C050020044900220B685A62C5
:1055400009684A6A8242FCD37047000010050020B7
:1055500010B582B01446CDE900010023009A236003
:10556000194B21F0004098422ADA024328D0B0F5C6
:10557000801FA8BF226810DA9FED150B53EC102B8B
:105580009DED000B51EC100B00F0D8FACDE90001B5
:105590006FF0350221F0004022600F4B6FF31E5177
:1055A00003EB20501044206041F0FF5040F00050C9
:1055B00001909DED000B00BF02B051EC100B10BD2F
:1055C0009DED000BF8E700000000F07F00000000F8
:1055D000000000000000504302FCFFFF10B53E4CED
:1055E00039A1601DFBF778F93CA104F12300FBF71A
:1055F00073F93CA104F12800FBF76EF91A20207022
:10560000242060701E20A0704020E0706020207177
:1056100037A104F13B00FBF75FF938A104F1590011
:10562000FBF75AF937A104F15E00FBF755F9CA20E0
:1056300084F836006D2084F83700512084F8380053
:10564000B42084F83900422084F83A0030A104F1F3
:105650007100FBF741F931A104F18F00FBF73CF930
:105660002FA104F19400FBF737F9F12084F86C00C6
:10567000B22084F86D00A92084F86E00C12084F85F
:105680006F00122084F8700028A104F1A700FBF736
:1056900023F92AA104F1C500FBF71EF929A104F1A1
:1056A000CA00FBF719F9992084F8A200EF2084F8CA
:1056B000A3004B2084F8A400B32084F8A5008E201A
:1056C00084F8A60010BD00004E677579656E2056FF
:1056D000616E204100000000F400002031304138AC
:1056E00000000000313233343536373839300000AD
:1056F0005472616E2056616E204200003131413992
:1057000000000000303132303334303536300000A4
:1057100044696E682056616E204300003761320094
:105720003938373630303534333200005452414E38
:10573000204C4F4E47204841490000004444313836
:105740000000000030383234303231333739000055
:1057500086B0FDF76FFBFFF741FFFFF737FBFFF761
:10576000DDF8FFF72BF9FFF76BF9FFF7F5F9FFF716
:105770000FFAFFF787F9FFF7BBF9FEF7EFFFFDF729
:105780008BF85748FEF71CFB5648FEF74BFBDFF83B
:105790005891564FA9F51D7A4FF0000BA9F50778DF
:1057A0005348FEF79BFF0028FAD1012220213846FA
:1057B000FDF72CFB9620FDF727FA00244FEA080599
:1057C00004EBC40000EB400005EB40014848FEF745
:1057D000A1FF40B1641C0A2CF2DD002220213846D2
:1057E000FDF714FBDCE704EBC40000EB400005EB25
:1057F000400414F8330F401C20703220FFF79CFE49
:1058000014F83309012804D0022831D084F833B0C9
:10581000E3E799F8001084F83410019199F8010039
:1058200084F835000090DAF8000000F0BBFA054675
:105830000E46DAF8040000F0B5FA02AA04F12303D8
:1058400082E86300DDE90010CDE900012648621D11
:105850002849AA30FAF7A4FD234904F12800AA3107
:1058600000F04CF820489621AA30FBF7A4F8B4E7E2
:1058700099F8001084F83410019199F8010084F827
:1058800035000090DAF8000000F08CFA05460E466C
:10589000DAF8040000F086FA024602A80B4680E817
:1058A0006C00DDE90010CDE900010F4804F123038D
:1058B000621D1149AA30FAF773FD0B4904F1280063
:1058C000AA3100F01BF808489621AA30FBF773F8BC
:1058D00084F834B084F835B084F833B07DE7000044
:1058E00010050020C804002010030020000402401E
:1058F00006000020DC6000088860000870B50C46D7
:1059000005460A230E220EA11048FEF72FFE0120A5
:10591000FFF712FE23462A460DA11248FAF740FD72
:10592000C82396220F490948FEF720FE3220FFF7D0
:1059300003FEBDE8704096210A48FBF75EB8000000
:1059400041542B434D47463D310D0A009C05002034
:1059500041542B434D47533D222573220D0A2025E8
:1059600073201A002403002010B500290AD00878FB
:10597000002807D005487844FCF7FAFA002801D03F
:10598000002010BD0248784410BD0000E60700006A
:10599000DE07000010B500290AD00878002807D0DB
:1059A00005487844FCF7E4FA002801D0002010BD37
:1059B0000248784410BD0000D6070000CE07000062
:1059C00021F00042A2F16052B2F5801F01F00043C5
:1059D00028BFD2F17F6C0BD95FEA001C43EAC202F8
:1059E00042EB507018BF704728BF20F0010070478D
:1059F000B2F5801FBCBF184670474FEA410C1CF53A
:105A0000001F02D2084600F043BA70B500F040F91A
:105A100000000089FFF7F6BF4FF00040A0F58000BE
:105A20007047000002494FF0000000F03BBA00BF91
:105A30000000F87F491058BFC1F140415B1058BFCA
:105A4000C3F140438B42EFF30080704751EA030CEF
:105A500017D41CF5801F58BFBCF5801F00F10680CD
:105A6000994218BF704708BF9042704707D711F599
:105A7000801F58BF13F5801F19D49942704789427F
:105A800070471CF5801F08D5BCF5801FF7D58B42E9
:105A900018BF704708BF824270474FF4001C1CEBD0
:105AA000410F38BF1CEB430F01D28B42704770B5DA
:105AB00000F0EEF8922449004FF000514FF080536F
:105AC000FFF7B8BF51EA030C17D41CF5801F58BF6D
:105AD000BCF5801F00F10680994218BF704708BFCF
