:1000000000308A0019280000223084008313000881
:10001000031918280530F800F701F70B0D28F80B25
:100020000C282E30F700F70B13281628800B0A280F
:10003000542803081F398300303083169000FF30A6
:100040008312A0008316031785018601831303130F
:100050001F109F1401300317850000308600031322
:100060001F169F121F1783121F14F8001F088339D1
:1000700078049F000030F80006389200FF308316A5
:100080009200831220112008831687008312071123
:100090000C3097009F149F184B281E08A1002108C0
:0C00A00095006430A20004284A28630088
:04400E00E43FFF3F4D
:00000001FF
;PIC16F722A
;CRC=FD66  CREATED="12-Feb-22 10:30"
